{
  "_format": "hh-sol-artifact-1",
  "contractName": "IdentityVault",
  "sourceName": "contracts/IdentityVault.sol",
  "abi": [
    {
      "anonymous": false,
      "inputs": [
        {
          "indexed": true,
          "internalType": "address",
          "name": "from",
          "type": "address"
        },
        {
          "indexed": true,
          "internalType": "address",
          "name": "to",
          "type": "address"
        }
      ],
      "name": "IdentityRevoked",
      "type": "event"
    },
    {
      "anonymous": false,
      "inputs": [
        {
          "indexed": true,
          "internalType": "address",
          "name": "from",
          "type": "address"
        },
        {
          "indexed": true,
          "internalType": "address",
          "name": "to",
          "type": "address"
        }
      ],
      "name": "IdentityShared",
      "type": "event"
    },
    {
      "anonymous": false,
      "inputs": [
        {
          "indexed": true,
          "internalType": "address",
          "name": "user",
          "type": "address"
        },
        {
          "indexed": false,
          "internalType": "string",
          "name": "identityHash",
          "type": "string"
        },
        {
          "indexed": false,
          "internalType": "string",
          "name": "sourceChain",
          "type": "string"
        }
      ],
      "name": "IdentityStored",
      "type": "event"
    },
    {
      "inputs": [
        {
          "internalType": "address",
          "name": "_user",
          "type": "address"
        },
        {
          "internalType": "address",
          "name": "_requester",
          "type": "address"
        }
      ],
      "name": "canAccessIdentity",
      "outputs": [
        {
          "internalType": "bool",
          "name": "",
          "type": "bool"
        }
      ],
      "stateMutability": "view",
      "type": "function"
    },
    {
      "inputs": [
        {
          "internalType": "address",
          "name": "_user",
          "type": "address"
        }
      ],
      "name": "getIdentity",
      "outputs": [
        {
          "components": [
            {
              "internalType": "string",
              "name": "identityHash",
              "type": "string"
            },
            {
              "internalType": "string",
              "name": "sourceChain",
              "type": "string"
            },
            {
              "internalType": "uint256",
              "name": "timestamp",
              "type": "uint256"
            },
            {
              "internalType": "bool",
              "name": "isActive",
              "type": "bool"
            }
          ],
          "internalType": "struct IdentityVault.Identity",
          "name": "",
          "type": "tuple"
        }
      ],
      "stateMutability": "view",
      "type": "function"
    },
    {
      "inputs": [
        {
          "internalType": "address",
          "name": "",
          "type": "address"
        }
      ],
      "name": "identities",
      "outputs": [
        {
          "internalType": "string",
          "name": "identityHash",
          "type": "string"
        },
        {
          "internalType": "string",
          "name": "sourceChain",
          "type": "string"
        },
        {
          "internalType": "uint256",
          "name": "timestamp",
          "type": "uint256"
        },
        {
          "internalType": "bool",
          "name": "isActive",
          "type": "bool"
        }
      ],
      "stateMutability": "view",
      "type": "function"
    },
    {
      "inputs": [
        {
          "internalType": "address",
          "name": "_from",
          "type": "address"
        }
      ],
      "name": "revokeIdentityShare",
      "outputs": [],
      "stateMutability": "nonpayable",
      "type": "function"
    },
    {
      "inputs": [
        {
          "internalType": "address",
          "name": "_to",
          "type": "address"
        }
      ],
      "name": "shareIdentity",
      "outputs": [],
      "stateMutability": "nonpayable",
      "type": "function"
    },
    {
      "inputs": [
        {
          "internalType": "address",
          "name": "",
          "type": "address"
        },
        {
          "internalType": "address",
          "name": "",
          "type": "address"
        }
      ],
      "name": "sharedIdentities",
      "outputs": [
        {
          "internalType": "bool",
          "name": "",
          "type": "bool"
        }
      ],
      "stateMutability": "view",
      "type": "function"
    },
    {
      "inputs": [
        {
          "internalType": "string",
          "name": "_identityHash",
          "type": "string"
        },
        {
          "internalType": "string",
          "name": "_sourceChain",
          "type": "string"
        }
      ],
      "name": "storeIdentity",
      "outputs": [],
      "stateMutability": "nonpayable",
      "type": "function"
    }
  ],
  "bytecode": "0x608060405234801561001057600080fd5b50610a3e806100206000396000f3fe608060405234801561001057600080fd5b506004361061007d5760003560e01c80635e30e9eb1161005b5780635e30e9eb146100f85780637fa330e91461010d578063bfcbf7f614610120578063f653b81e1461013357600080fd5b80632592a3fa146100825780632fea7b81146100aa578063352b7bd0146100ca575b600080fd5b61009561009036600461065c565b610156565b60405190151581526020015b60405180910390f35b6100bd6100b836600461068f565b6101a4565b6040516100a191906106f0565b6100956100d836600461065c565b600160209081526000928352604080842090915290825290205460ff1681565b61010b6101063660046107ef565b610337565b005b61010b61011b36600461068f565b6103ed565b61010b61012e36600461068f565b610443565b61014661014136600461068f565b610504565b6040516100a19493929190610853565b6000816001600160a01b0316836001600160a01b0316148061019d57506001600160a01b0380841660009081526001602090815260408083209386168352929052205460ff165b9392505050565b6101d160405180608001604052806060815260200160608152602001600081526020016000151581525090565b6001600160a01b0382166000908152602081905260409081902081516080810190925280548290829061020390610891565b80601f016020809104026020016040519081016040528092919081815260200182805461022f90610891565b801561027c5780601f106102515761010080835404028352916020019161027c565b820191906000526020600020905b81548152906001019060200180831161025f57829003601f168201915b5050505050815260200160018201805461029590610891565b80601f01602080910402602001604051908101604052809291908181526020018280546102c190610891565b801561030e5780601f106102e35761010080835404028352916020019161030e565b820191906000526020600020905b8154815290600101906020018083116102f157829003601f168201915b50505091835250506002820154602082015260039091015460ff16151560409091015292915050565b604080516080810182528381526020808201849052428284015260016060830152336000908152908190529190912081518190610374908261091a565b5060208201516001820190610389908261091a565b5060408281015160028301556060909201516003909101805460ff19169115159190911790555133907fd803efe7992a66cb8d1cc125c075d293f9f88450b6273659b5a281880059a76e906103e190859085906109da565b60405180910390a25050565b6001600160a01b0381166000818152600160209081526040808320338085529252808320805460ff19169055519092917fd7533bea9fdce549b772c9bf708932fcf1560edaa0c94df3f90e65e75eb7565791a350565b3360009081526020819052604090206003015460ff166104a95760405162461bcd60e51b815260206004820152601b60248201527f4e6f20616374697665206964656e7469747920746f2073686172650000000000604482015260640160405180910390fd5b3360008181526001602081815260408084206001600160a01b0387168086529252808420805460ff191690931790925590519092917fdba58f2381262309eafcd087975bac152ac81935d580750d0a2211b04441ea6991a350565b60006020819052908152604090208054819061051f90610891565b80601f016020809104026020016040519081016040528092919081815260200182805461054b90610891565b80156105985780601f1061056d57610100808354040283529160200191610598565b820191906000526020600020905b81548152906001019060200180831161057b57829003601f168201915b5050505050908060010180546105ad90610891565b80601f01602080910402602001604051908101604052809291908181526020018280546105d990610891565b80156106265780601f106105fb57610100808354040283529160200191610626565b820191906000526020600020905b81548152906001019060200180831161060957829003601f168201915b50505050600283015460039093015491929160ff16905084565b80356001600160a01b038116811461065757600080fd5b919050565b6000806040838503121561066f57600080fd5b61067883610640565b915061068660208401610640565b90509250929050565b6000602082840312156106a157600080fd5b61019d82610640565b6000815180845260005b818110156106d0576020818501810151868301820152016106b4565b506000602082860101526020601f19601f83011685010191505092915050565b60208152600082516080602084015261070c60a08401826106aa565b90506020840151601f1984830301604085015261072982826106aa565b915050604084015160608401526060840151151560808401528091505092915050565b634e487b7160e01b600052604160045260246000fd5b600082601f83011261077357600080fd5b813567ffffffffffffffff8082111561078e5761078e61074c565b604051601f8301601f19908116603f011681019082821181831017156107b6576107b661074c565b816040528381528660208588010111156107cf57600080fd5b836020870160208301376000602085830101528094505050505092915050565b6000806040838503121561080257600080fd5b823567ffffffffffffffff8082111561081a57600080fd5b61082686838701610762565b9350602085013591508082111561083c57600080fd5b5061084985828601610762565b9150509250929050565b60808152600061086660808301876106aa565b828103602084015261087881876106aa565b6040840195909552505090151560609091015292915050565b600181811c908216806108a557607f821691505b6020821081036108c557634e487b7160e01b600052602260045260246000fd5b50919050565b601f82111561091557600081815260208120601f850160051c810160208610156108f25750805b601f850160051c820191505b81811015610911578281556001016108fe565b5050505b505050565b815167ffffffffffffffff8111156109345761093461074c565b610948816109428454610891565b846108cb565b602080601f83116001811461097d57600084156109655750858301515b600019600386901b1c1916600185901b178555610911565b600085815260208120601f198616915b828110156109ac5788860151825594840194600190910190840161098d565b50858210156109ca5787850151600019600388901b60f8161c191681555b5050505050600190811b01905550565b6040815260006109ed60408301856106aa565b82810360208401526109ff81856106aa565b9594505050505056fea26469706673582212201305a10b948766aa330e3074c9382eb3d108a0435745ea7de1c063bd27c5733664736f6c63430008140033",
  "linkReferences": {},
  "deployedLinkReferences": {}
}